:10000000000400100D010000EB000000EB000000F8
:10001000EB000000EB000000EB000000000000001F
:10002000000000000000000000000000EB000000E5
:10003000EB00000000000000EB000000EB000000FF
:1000400081B01848016831F0040101601648016868
:1000500031F0040101601548016831F004010160CC
:100060001348016851F0040101601248016851F021
:10007000800101601048016851F080010160016851
:1000800031F0800101600D49096800914907F6D5FA
:10009000016851F08001016009490A6852F00402C8
:1000A0000A60F0E70080035004800350088003508A
:1000B0001080035000800050FC3F00501880035017
:1000C0001C80035000F00DF8002801D0AFF3008031
:1000D000AFF300800020AFF30080FFF7B1FF00F026
:1000E00002F80120704700F001B8FEE707463846E5
:1000F00000F002F8FBE7000080B5AFF30080024A91
:1001000011001820ABBEFBE726000200054801469F
:1001100003B4684680F30988AFF30080AFF3008032
:08012000FFF7D0FFA5EDF5FE8D
:040000050000010DE9
:00000001FF
