:1000000000200010B901000041020000470200007A
:100010004D0200005302000059020000C6D2FFEF5B
:100020000000000000000000000000005F0200006F
:1000300065020000000000006B0200007102000079
:1000400077020000770200007702000077020000CC
:1000500077020000770200007702000077020000BC
:1000600077020000770200007702000077020000AC
:10007000770200007702000077020000770200009C
:10008000770200007702000077020000770200008C
:10009000770200007702000077020000770200007C
:1000A000770200007702000077020000770200006C
:1000B000770200007702000077020000770200005C
:1000C000770200007702000077020000770200004C
:1000D000770200007702000077020000770200003C
:1000E000770200007702000077020000770200002C
:1000F000770200007702000077020000770200001C
:10010000770200007702000077020000770200000B
:1001100077020000770200007702000077020000FB
:100120007702000077020000E80A000000000010DB
:100130000400000004000010E401000080B489B055
:1001400000AFF860B9607A60BB68FB61FB68BB61B7
:1001500000237B610AE0BA69131DBB61FB69191DAD
:10016000F96112681A607B6904337B617A697B6884
:100170009A42F0D300BF00BF2437BD4680BC704711
:1001800080B485B000AF786039607B68FB60002385
:10019000BB6007E0FB681A1DFA6000221A60BB68AA
:1001A0000433BB60BA683B689A42F3D300BF00BF18
:1001B0001437BD4680BC704780B586B000AF1C4B7D
:1001C0007B6113E07B691A1D7A611B687B607B6928
:1001D0001A1D7A611B68FB607B691A1D7A611B68B6
:1001E000BB60BA68F9687868FFF7A8FF7B69114AB5
:1001F0009342E7D30DE07B691A1D7A611B68FB60AF
:100200007B691A1D7A611B68BB60B968F868FFF7E3
:10021000B7FF7B69084A9342EDD3084B3B613B69CA
:1002200001221A6000F03CF900F08EF9FEE700BFF1
:1002300028010000340100003C010000AC800440B3
:1002400080B400AFFEE780B400AFFEE780B400AF3B
:10025000FEE780B400AFFEE780B400AFFEE780B4F5
:1002600000AFFEE780B400AFFEE780B400AFFEE76A
:1002700080B400AFFEE780B400AFFEE7FFFFFFFFF2
:10028000FFFFFFFFFFFFFFFFFFFFFFFFFFFFFFFF7E
:10029000FFFFFFFFFFFFFFFFFFFFFFFFFFFFFFFF6E
:1002A000FFFFFFFFFFFFFFFFFFFFFFFFFFFFFFFF5E
:1002B000FFFFFFFFFFFFFFFFFFFFFFFFFFFFFFFF4E
:1002C000FFFFFFFFFFFFFFFFFFFFFFFFFFFFFFFF3E
:1002D000FFFFFFFFFFFFFFFFFFFFFFFFFFFFFFFF2E
:1002E000FFFFFFFFFFFFFFFFFFFFFFFFFFFFFFFF1E
:1002F000FFFFFFFFFFFFFFFFFFFFFFFFFFFFFFFF0E
:1003000080B500AF00F076F800F004F800F03AF89D
:10031000FEE7FFFF80B400AF174BD3F88030164ADA
:1003200043F08003C2F88030144B02225A60134B12
:100330004FF480625A61114BFA229A610F4B4FF4CD
:10034000FA725A620D4B3022DA600C4B00221A67A7
:100350000A4B09225A670A4B02221A66074B0022EF
:10036000DA63064B00221A60044B01225A6000BF78
:10037000BD4680BC704700BF0080044000C0004004
:100380000040044080B400AF174BD3F88030164AC9
:1003900043F48073C2F88030144B02225A60134B2E
:1003A0004FF480625A61114B7D229A610F4B4FF4DA
:1003B000FA725A620D4B3022DA600C4B00221A6737
:1003C0000A4B09225A670A4B01229A63074B002203
:1003D000DA63064B00221A60044B01225A6000BF08
:1003E000BD4680BC704700BF008004400000014053
:1003F00000400440254A536AC3F34313013B0E2BCC
:1004000096BF2349234951F82310536A106F5B00AC
:1004100003F03E0300F0030002330228B1FBF3F1C6
:100420001D4B30D0032813D0012801D01B4A07E010
:10043000126C02F00302022A25D0032AF6D1002210
:100440001A60124A916F1A68B2FBF1F21A60704793
:10045000106C00F0030002280CD00328EFD0916844
:1004600011F4C07FE2D191680C4A01F01F0101FB39
:100470000222E5E7906810F4C07F02BF926802F0A4
:100480001F0202FB01111960DBE700BF008004407E
:10049000A40A0000801A060000000010001BB7002C
:1004A000274BD3F8382222F02002C3F8382200224A
:1004B0001A62C82200BF013AFCD1012119645964B3
:1004C0005A6459641E4B5A6CD107FCD525229A6098
:1004D000D3F8382222F08002C3F83822DA68D20733
:1004E000FCD5032200211A6701225A6759675A670F
:1004F000134B5A6FD007FCD5D3F83822002122F4D1
:100500008062C3F83822D3F8382222F48072C3F80C
:10051000382201229A64DA64D964DA64084BDA6C0E
:10052000D107FCD503221A615A69D207FCD50022F3
:10053000C3F8C02001229A67024AC3F8802070479E
:10054000008004405F00010008B500F005F8BDE838
:100550000840FFF7D5BEFFFF10B5174A1749002026
:1005600000F055F84FF480734FF480620021124878
:1005700000F02EF8124A1349012000F048F84FF419
:1005800080734FF4806200210D4800F021F80E4B7B
:100590001B68022B0EDD0D4A0A49022000F037F8D5
:1005A000BDE810404FF480734FF48062002107488B
:1005B00000F00EB810BD00BF08000010E00A0000F7
:1005C00044000010E20A0000E40A0000800000106D
:1005D00070B5C468A50708D0B2F5007F11D0B2F598
:1005E000806F04D0B2F5807F0BD0012008E001239A
:1005F00000F12401224301610160C361C260002057
:1006000070BD6FF07F455E1EAE42F3D3EDE770B56F
:100610000D4606461046144600F02DF82B78722B36
:1006200017D0772B18D0612B23D1082348F2020270
:1006300015F8011F2B2912D0622915D01B07E26083
:10064000666104D502220021204600F05FF82046B2
:1006500070BD00230122EBE704230222E8E742F009
:10066000030243F00203E3E742F0040243F0010314
:10067000DEE70024EBE7F0B5C4680546A10789B0C2
:1006800022D0220718D4D0E9046700F021F83846B8
:1006900000F0DDF9230502D5304600F087F9A40DFE
:1006A000A40514F1A54F07D120226846296A00F05D
:1006B000ECF9684600F0CAF83C220021284600F018
:1006C000F3F8002009B0F0BD4FF0FF30FAE7FFFF6C
:1006D000F8B5044638B905460A4B0B4E1F68A742C9
:1006E00005DC2846F8BDBDE8F84000F0DFB830462C
:1006F00000F0DCF8002818BF4FF0FF3501343C361D
:10070000EDE700BFE40A0000080000102DE9F843FF
:10071000C6683C4B044633400D4690461BB9022741
:100720003846BDE8F883D0F81490484600F09BF9AD
:1007300007460028F3D1B8F1010F2CD0B8F1020F11
:100740002ED0B8F1000FEAD1002DE8DBB00404D5BB
:100750002368E26A9A4238BFE362A169A9420EDCCB
:100760002368E26A934238BF134622695818801AF8
:10077000A84204DB206B01EB000CAC4531DC00230C
:10078000C4E9013346F02006A56226F4032626F0CC
:100790004006E660C4E7204600F036F80544D3E79B
:1007A000484600F05AF90028E26804DA42F0800274
:1007B0000127E260B4E72168A369D4F82CC0614541
:1007C0002CBF5B18634421699206A3EB010303D598
:1007D000A26A9342B8BF13468342ACBFED182D18EE
:1007E000B2E76D1AB10744BF281AA060F10744BFF1
:1007F0009B1AEB1A154448BF6360256026F020065B
:10080000C3E700BF03001000C3689A0705D1212287
:100810000D4B4FF0FF301A60704703F020021B03AE
:1008200009D512B1806A013870470368826900698E
:100830001344181AF7E70AB1806A7047036882699F
:1008400000691344181A70470400001010B50446DC
:1008500000F006F801462046BDE8104000F009B956
:1008600010B5431C8207044614D1204654F8042BCB
:10087000A2F1013121EA020111F0803FF5D0D1B29D
:1008800081B112F47F4F0BD012F47F0F14BF2046BA
:10089000033003E010F8012B002AE3D1C01A10BD89
:1008A0000230FBE70130F9E700F0B8B8C36870B573
:1008B00013F00306044611D09B0611D5856A00F09B
:1008C0008DF8E368204623F44053E36000F00EF80F
:1008D0000022064629462046FFF718FF304670BD25
:1008E000816905680D4401696D1AEAE738B5044667
:1008F00005690168C36AC06820F40022E26000F064
:100900008202022A02D04FF0FF3038BD10F480304E
:10091000FBD0994238BF19468D4208D10020E368C8
:10092000E56223F480332560A060E360EDE72246B2
:100930002846491B00F004F80028EFD0E3E7FFFF4A
:100940002DE9F041D5688046EB020E461446576902
:1009500005D5384600F081F845F01005A061124B2E
:100960002B408BB13846A16900F089F8002806DADF
:10097000E3684FF0FF3043F08003E36011E025F4BB
:10098000003525F01005E56032464146384600F056
:1009900082F820F00041761AA1690E44A661002871
:1009A000E6D1BDE8F08100BF10000200A8B14FF011
:1009B000805340F80C3C50F8042C72B11368B3F12A
:1009C000805F0AD150F8083C516803330B4440F86B
:1009D000083C936840F8043CEDE77047C36810B5E5
:1009E00023F020038269C360836A04469A420ED0D2
:1009F000FFF77CFFE36823F4405323F0100343F038
:100A00001003E360A36AA3612369E3622360E368E0
:100A100023F4804323F04003E36010BD034613F04A
:100A2000030F0ED101F0FF0141EA012141EA01412A
:100A3000043A24BF43F8041BB2F10402F9D202F1D4
:100A40000402013A24BF03F8011BFAE7704703B41C
:100A500069460220ABBE02B0704703B469460C2061
:100A6000ABBE02B0704703B469460920ABBE02B00A
:100A7000704703B469460E20ABBE02B0704703B4A2
:100A800069460A20ABBE02B070470FB469460D201C
:100A9000ABBE04B070470FB469460520ABBE04B0CE
:100AA0007047FFFF20A1070000350C00E0C81000D0
:100AB000C05C1500006A180040771B0080841E008F
:100AC000C0912100009F240040AC2700E0322900A3
:100AD00020402C00604D2F0000D4300040E1330056
:080AE00072007700080000001D
:040AE80000A24A041A
:04000003000001B93F
:00000001FF
