:100000000004001021010000FF000000FF000000BC
:10001000FF000000FF000000FF00000000000000E3
:10002000000000000000000000000000FF000000D1
:10003000FF00000000000000FF000000FF000000C3
:1000400081B01B48016831F0040101601948016862
:1000500001601948016801601848016851F0040105
:1000600001601748006800904007FAD515480168FC
:1000700051F0040101601448016851F080010160F1
:100080001248016851F080010160016831F080017F
:1000900001600F49096800914907F6D5016851F0E0
:1000A000800101600B490A6852F004020A60F0E71F
:1000B0000080035004800350088003500C800350DC
:1000C000148003501080035000800050FC3F00500B
:1000D000188003501C80035000F00DF8002801D058
:1000E000AFF30080AFF300800020AFF30080FFF794
:1000F000A7FF00F002F80120704700F001B8FEE70A
:100100000746384600F002F8FBE7000080B5AFF381
:100110000080024A11001820ABBEFBE72600020057
:100120000548014603B4684680F30988AFF30080B0
:0C013000AFF30080FFF7D0FFA5EDF5FE57
:0400000500000121D5
:00000001FF
