:1000000000040010D9000000BF000000BF00000085
:10001000BF000000BF000000BF00000000000000A3
:10002000000000000000000000000000BF00000011
:10003000BF00000000000000BF000000BF00000083
:1000400030B41148016841F0800101600F48026836
:1000500042F0800202600E48016821F080010160D8
:100060000C490A6822F080020A600B4A03E08023F0
:1000700003600024046015686B07F8D480240C60CA
:1000800000250D60F7E7000000800050008001505F
:10009000FC3F0050FC3F0150FC3F03500120C04694
:1000A000002801D0AFF30080AFF300800020AFF351
:1000B0000080FFF7C5FF00F000F800F001B8FEE790
:1000C0000746384600F002F8FBE70000202109034C
:1000D00026311820ABBEF9E70548014603B468464F
:1000E00080F30988AFF30080AFF30080FFF7D6FFFD
:0400F000A5EDF5FE87
:04000005000000D91E
:00000001FF
